{
  "_format": "hh-sol-artifact-1",
  "contractName": "AkumaNFT",
  "sourceName": "contracts/AkumaNFT.sol",
  "abi": [
    {
      "inputs": [],
      "stateMutability": "nonpayable",
      "type": "constructor"
    },
    {
      "anonymous": false,
      "inputs": [
        {
          "indexed": true,
          "internalType": "address",
          "name": "owner",
          "type": "address"
        },
        {
          "indexed": true,
          "internalType": "address",
          "name": "approved",
          "type": "address"
        },
        {
          "indexed": true,
          "internalType": "uint256",
          "name": "tokenId",
          "type": "uint256"
        }
      ],
      "name": "Approval",
      "type": "event"
    },
    {
      "anonymous": false,
      "inputs": [
        {
          "indexed": true,
          "internalType": "address",
          "name": "owner",
          "type": "address"
        },
        {
          "indexed": true,
          "internalType": "address",
          "name": "operator",
          "type": "address"
        },
        {
          "indexed": false,
          "internalType": "bool",
          "name": "approved",
          "type": "bool"
        }
      ],
      "name": "ApprovalForAll",
      "type": "event"
    },
    {
      "anonymous": false,
      "inputs": [
        {
          "indexed": true,
          "internalType": "address",
          "name": "previousOwner",
          "type": "address"
        },
        {
          "indexed": true,
          "internalType": "address",
          "name": "newOwner",
          "type": "address"
        }
      ],
      "name": "OwnershipTransferred",
      "type": "event"
    },
    {
      "anonymous": false,
      "inputs": [
        {
          "indexed": true,
          "internalType": "address",
          "name": "from",
          "type": "address"
        },
        {
          "indexed": true,
          "internalType": "address",
          "name": "to",
          "type": "address"
        },
        {
          "indexed": true,
          "internalType": "uint256",
          "name": "tokenId",
          "type": "uint256"
        }
      ],
      "name": "Transfer",
      "type": "event"
    },
    {
      "inputs": [
        {
          "internalType": "address",
          "name": "to",
          "type": "address"
        },
        {
          "internalType": "uint256",
          "name": "tokenId",
          "type": "uint256"
        }
      ],
      "name": "approve",
      "outputs": [],
      "stateMutability": "nonpayable",
      "type": "function"
    },
    {
      "inputs": [
        {
          "internalType": "address",
          "name": "owner",
          "type": "address"
        }
      ],
      "name": "balanceOf",
      "outputs": [
        {
          "internalType": "uint256",
          "name": "",
          "type": "uint256"
        }
      ],
      "stateMutability": "view",
      "type": "function"
    },
    {
      "inputs": [
        {
          "internalType": "uint256",
          "name": "tokenId",
          "type": "uint256"
        }
      ],
      "name": "getApproved",
      "outputs": [
        {
          "internalType": "address",
          "name": "",
          "type": "address"
        }
      ],
      "stateMutability": "view",
      "type": "function"
    },
    {
      "inputs": [
        {
          "internalType": "address",
          "name": "owner",
          "type": "address"
        },
        {
          "internalType": "address",
          "name": "operator",
          "type": "address"
        }
      ],
      "name": "isApprovedForAll",
      "outputs": [
        {
          "internalType": "bool",
          "name": "",
          "type": "bool"
        }
      ],
      "stateMutability": "view",
      "type": "function"
    },
    {
      "inputs": [
        {
          "internalType": "address",
          "name": "recipient",
          "type": "address"
        },
        {
          "internalType": "uint256",
          "name": "tokenId",
          "type": "uint256"
        },
        {
          "internalType": "string",
          "name": "uri",
          "type": "string"
        }
      ],
      "name": "mintToken",
      "outputs": [],
      "stateMutability": "payable",
      "type": "function"
    },
    {
      "inputs": [],
      "name": "name",
      "outputs": [
        {
          "internalType": "string",
          "name": "",
          "type": "string"
        }
      ],
      "stateMutability": "view",
      "type": "function"
    },
    {
      "inputs": [],
      "name": "owner",
      "outputs": [
        {
          "internalType": "address",
          "name": "",
          "type": "address"
        }
      ],
      "stateMutability": "view",
      "type": "function"
    },
    {
      "inputs": [
        {
          "internalType": "uint256",
          "name": "tokenId",
          "type": "uint256"
        }
      ],
      "name": "ownerOf",
      "outputs": [
        {
          "internalType": "address",
          "name": "",
          "type": "address"
        }
      ],
      "stateMutability": "view",
      "type": "function"
    },
    {
      "inputs": [],
      "name": "renounceOwnership",
      "outputs": [],
      "stateMutability": "nonpayable",
      "type": "function"
    },
    {
      "inputs": [
        {
          "internalType": "address",
          "name": "to",
          "type": "address"
        },
        {
          "internalType": "uint256",
          "name": "tokenId",
          "type": "uint256"
        }
      ],
      "name": "safeMint",
      "outputs": [],
      "stateMutability": "nonpayable",
      "type": "function"
    },
    {
      "inputs": [
        {
          "internalType": "address",
          "name": "from",
          "type": "address"
        },
        {
          "internalType": "address",
          "name": "to",
          "type": "address"
        },
        {
          "internalType": "uint256",
          "name": "tokenId",
          "type": "uint256"
        }
      ],
      "name": "safeTransferFrom",
      "outputs": [],
      "stateMutability": "nonpayable",
      "type": "function"
    },
    {
      "inputs": [
        {
          "internalType": "address",
          "name": "from",
          "type": "address"
        },
        {
          "internalType": "address",
          "name": "to",
          "type": "address"
        },
        {
          "internalType": "uint256",
          "name": "tokenId",
          "type": "uint256"
        },
        {
          "internalType": "bytes",
          "name": "_data",
          "type": "bytes"
        }
      ],
      "name": "safeTransferFrom",
      "outputs": [],
      "stateMutability": "nonpayable",
      "type": "function"
    },
    {
      "inputs": [
        {
          "internalType": "address",
          "name": "operator",
          "type": "address"
        },
        {
          "internalType": "bool",
          "name": "approved",
          "type": "bool"
        }
      ],
      "name": "setApprovalForAll",
      "outputs": [],
      "stateMutability": "nonpayable",
      "type": "function"
    },
    {
      "inputs": [
        {
          "internalType": "bytes4",
          "name": "interfaceId",
          "type": "bytes4"
        }
      ],
      "name": "supportsInterface",
      "outputs": [
        {
          "internalType": "bool",
          "name": "",
          "type": "bool"
        }
      ],
      "stateMutability": "view",
      "type": "function"
    },
    {
      "inputs": [],
      "name": "symbol",
      "outputs": [
        {
          "internalType": "string",
          "name": "",
          "type": "string"
        }
      ],
      "stateMutability": "view",
      "type": "function"
    },
    {
      "inputs": [
        {
          "internalType": "uint256",
          "name": "index",
          "type": "uint256"
        }
      ],
      "name": "tokenByIndex",
      "outputs": [
        {
          "internalType": "uint256",
          "name": "",
          "type": "uint256"
        }
      ],
      "stateMutability": "view",
      "type": "function"
    },
    {
      "inputs": [
        {
          "internalType": "address",
          "name": "owner",
          "type": "address"
        },
        {
          "internalType": "uint256",
          "name": "index",
          "type": "uint256"
        }
      ],
      "name": "tokenOfOwnerByIndex",
      "outputs": [
        {
          "internalType": "uint256",
          "name": "",
          "type": "uint256"
        }
      ],
      "stateMutability": "view",
      "type": "function"
    },
    {
      "inputs": [
        {
          "internalType": "uint256",
          "name": "tokenId",
          "type": "uint256"
        }
      ],
      "name": "tokenURI",
      "outputs": [
        {
          "internalType": "string",
          "name": "",
          "type": "string"
        }
      ],
      "stateMutability": "view",
      "type": "function"
    },
    {
      "inputs": [],
      "name": "totalSupply",
      "outputs": [
        {
          "internalType": "uint256",
          "name": "",
          "type": "uint256"
        }
      ],
      "stateMutability": "view",
      "type": "function"
    },
    {
      "inputs": [
        {
          "internalType": "address",
          "name": "from",
          "type": "address"
        },
        {
          "internalType": "address",
          "name": "to",
          "type": "address"
        },
        {
          "internalType": "uint256",
          "name": "tokenId",
          "type": "uint256"
        }
      ],
      "name": "transferFrom",
      "outputs": [],
      "stateMutability": "nonpayable",
      "type": "function"
    },
    {
      "inputs": [
        {
          "internalType": "address",
          "name": "newOwner",
          "type": "address"
        }
      ],
      "name": "transferOwnership",
      "outputs": [],
      "stateMutability": "nonpayable",
      "type": "function"
    },
    {
      "inputs": [],
      "name": "withdraw",
      "outputs": [],
      "stateMutability": "nonpayable",
      "type": "function"
    }
  ],
  "bytecode": "0x60806040523480156200001157600080fd5b506040518060400160405280600f81526020017f4e465420436f6c6c65637469626c6500000000000000000000000000000000008152506040518060400160405280600481526020017f4e46544300000000000000000000000000000000000000000000000000000000815250816000908051906020019062000096929190620001ae565b508060019080519060200190620000af929190620001ae565b505050620000d2620000c6620000e060201b60201c565b620000e860201b60201c565b6001600c81905550620002c3565b600033905090565b6000600b60009054906101000a900473ffffffffffffffffffffffffffffffffffffffff16905081600b60006101000a81548173ffffffffffffffffffffffffffffffffffffffff021916908373ffffffffffffffffffffffffffffffffffffffff1602179055508173ffffffffffffffffffffffffffffffffffffffff168173ffffffffffffffffffffffffffffffffffffffff167f8be0079c531659141344cd1fd0a4f28419497f9722a3daafe3b4186f6b6457e060405160405180910390a35050565b828054620001bc906200025e565b90600052602060002090601f016020900481019282620001e057600085556200022c565b82601f10620001fb57805160ff19168380011785556200022c565b828001600101855582156200022c579182015b828111156200022b5782518255916020019190600101906200020e565b5b5090506200023b91906200023f565b5090565b5b808211156200025a57600081600090555060010162000240565b5090565b600060028204905060018216806200027757607f821691505b602082108114156200028e576200028d62000294565b5b50919050565b7f4e487b7100000000000000000000000000000000000000000000000000000000600052602260045260246000fd5b613d2780620002d36000396000f3fe6080604052600436106101355760003560e01c806370a08231116100ab578063a22cb4651161006f578063a22cb46514610426578063b88d4fde1461044f578063c87b56dd14610478578063e985e9c5146104b5578063f2fde38b146104f2578063f76e8ba91461051b57610135565b806370a0823114610353578063715018a6146103905780638da5cb5b146103a757806395d89b41146103d2578063a1448194146103fd57610135565b806323b872dd116100fd57806323b872dd146102335780632f745c591461025c5780633ccfd60b1461029957806342842e0e146102b05780634f6ccce7146102d95780636352211e1461031657610135565b806301ffc9a71461013a57806306fdde0314610177578063081812fc146101a2578063095ea7b3146101df57806318160ddd14610208575b600080fd5b34801561014657600080fd5b50610161600480360381019061015c9190612a02565b610537565b60405161016e9190612f35565b60405180910390f35b34801561018357600080fd5b5061018c610549565b6040516101999190612f50565b60405180910390f35b3480156101ae57600080fd5b506101c960048036038101906101c49190612a54565b6105db565b6040516101d69190612ece565b60405180910390f35b3480156101eb57600080fd5b506102066004803603810190610201919061295f565b610660565b005b34801561021457600080fd5b5061021d610778565b60405161022a9190613252565b60405180910390f35b34801561023f57600080fd5b5061025a60048036038101906102559190612859565b610785565b005b34801561026857600080fd5b50610283600480360381019061027e919061295f565b6107e5565b6040516102909190613252565b60405180910390f35b3480156102a557600080fd5b506102ae61088a565b005b3480156102bc57600080fd5b506102d760048036038101906102d29190612859565b610a0b565b005b3480156102e557600080fd5b5061030060048036038101906102fb9190612a54565b610a2b565b60405161030d9190613252565b60405180910390f35b34801561032257600080fd5b5061033d60048036038101906103389190612a54565b610ac2565b60405161034a9190612ece565b60405180910390f35b34801561035f57600080fd5b5061037a600480360381019061037591906127f4565b610b74565b6040516103879190613252565b60405180910390f35b34801561039c57600080fd5b506103a5610c2c565b005b3480156103b357600080fd5b506103bc610cb4565b6040516103c99190612ece565b60405180910390f35b3480156103de57600080fd5b506103e7610cde565b6040516103f49190612f50565b60405180910390f35b34801561040957600080fd5b50610424600480360381019061041f919061295f565b610d70565b005b34801561043257600080fd5b5061044d60048036038101906104489190612923565b610dfa565b005b34801561045b57600080fd5b50610476600480360381019061047191906128a8565b610e10565b005b34801561048457600080fd5b5061049f600480360381019061049a9190612a54565b610e72565b6040516104ac9190612f50565b60405180910390f35b3480156104c157600080fd5b506104dc60048036038101906104d7919061281d565b610e84565b6040516104e99190612f35565b60405180910390f35b3480156104fe57600080fd5b50610519600480360381019061051491906127f4565b610f18565b005b6105356004803603810190610530919061299b565b611010565b005b60006105428261106d565b9050919050565b606060008054610558906134b3565b80601f0160208091040260200160405190810160405280929190818152602001828054610584906134b3565b80156105d15780601f106105a6576101008083540402835291602001916105d1565b820191906000526020600020905b8154815290600101906020018083116105b457829003601f168201915b5050505050905090565b60006105e6826110e7565b610625576040517f08c379a000000000000000000000000000000000000000000000000000000000815260040161061c90613132565b60405180910390fd5b6004600083815260200190815260200160002060009054906101000a900473ffffffffffffffffffffffffffffffffffffffff169050919050565b600061066b82610ac2565b90508073ffffffffffffffffffffffffffffffffffffffff168373ffffffffffffffffffffffffffffffffffffffff1614156106dc576040517f08c379a00000000000000000000000000000000000000000000000000000000081526004016106d390613192565b60405180910390fd5b8073ffffffffffffffffffffffffffffffffffffffff166106fb611153565b73ffffffffffffffffffffffffffffffffffffffff16148061072a575061072981610724611153565b610e84565b5b610769576040517f08c379a000000000000000000000000000000000000000000000000000000000815260040161076090613072565b60405180910390fd5b610773838361115b565b505050565b6000600980549050905090565b610796610790611153565b82611214565b6107d5576040517f08c379a00000000000000000000000000000000000000000000000000000000081526004016107cc906131b2565b60405180910390fd5b6107e08383836112f2565b505050565b60006107f083610b74565b8210610831576040517f08c379a000000000000000000000000000000000000000000000000000000000815260040161082890612f72565b60405180910390fd5b600760008473ffffffffffffffffffffffffffffffffffffffff1673ffffffffffffffffffffffffffffffffffffffff168152602001908152602001600020600083815260200190815260200160002054905092915050565b610892611153565b73ffffffffffffffffffffffffffffffffffffffff166108b0610cb4565b73ffffffffffffffffffffffffffffffffffffffff1614610906576040517f08c379a00000000000000000000000000000000000000000000000000000000081526004016108fd90613152565b60405180910390fd5b6002600c54141561094c576040517f08c379a000000000000000000000000000000000000000000000000000000000815260040161094390613212565b60405180910390fd5b6002600c8190555060003373ffffffffffffffffffffffffffffffffffffffff164760405161097a90612eb9565b60006040518083038185875af1925050503d80600081146109b7576040519150601f19603f3d011682016040523d82523d6000602084013e6109bc565b606091505b5050905080610a00576040517f08c379a00000000000000000000000000000000000000000000000000000000081526004016109f790613232565b60405180910390fd5b506001600c81905550565b610a2683838360405180602001604052806000815250610e10565b505050565b6000610a35610778565b8210610a76576040517f08c379a0000000000000000000000000000000000000000000000000000000008152600401610a6d906131d2565b60405180910390fd5b60098281548110610ab0577f4e487b7100000000000000000000000000000000000000000000000000000000600052603260045260246000fd5b90600052602060002001549050919050565b6000806002600084815260200190815260200160002060009054906101000a900473ffffffffffffffffffffffffffffffffffffffff169050600073ffffffffffffffffffffffffffffffffffffffff168173ffffffffffffffffffffffffffffffffffffffff161415610b6b576040517f08c379a0000000000000000000000000000000000000000000000000000000008152600401610b62906130b2565b60405180910390fd5b80915050919050565b60008073ffffffffffffffffffffffffffffffffffffffff168273ffffffffffffffffffffffffffffffffffffffff161415610be5576040517f08c379a0000000000000000000000000000000000000000000000000000000008152600401610bdc90613092565b60405180910390fd5b600360008373ffffffffffffffffffffffffffffffffffffffff1673ffffffffffffffffffffffffffffffffffffffff168152602001908152602001600020549050919050565b610c34611153565b73ffffffffffffffffffffffffffffffffffffffff16610c52610cb4565b73ffffffffffffffffffffffffffffffffffffffff1614610ca8576040517f08c379a0000000000000000000000000000000000000000000000000000000008152600401610c9f90613152565b60405180910390fd5b610cb26000611559565b565b6000600b60009054906101000a900473ffffffffffffffffffffffffffffffffffffffff16905090565b606060018054610ced906134b3565b80601f0160208091040260200160405190810160405280929190818152602001828054610d19906134b3565b8015610d665780601f10610d3b57610100808354040283529160200191610d66565b820191906000526020600020905b815481529060010190602001808311610d4957829003601f168201915b5050505050905090565b610d78611153565b73ffffffffffffffffffffffffffffffffffffffff16610d96610cb4565b73ffffffffffffffffffffffffffffffffffffffff1614610dec576040517f08c379a0000000000000000000000000000000000000000000000000000000008152600401610de390613152565b60405180910390fd5b610df6828261161f565b5050565b610e0c610e05611153565b838361163d565b5050565b610e21610e1b611153565b83611214565b610e60576040517f08c379a0000000000000000000000000000000000000000000000000000000008152600401610e57906131b2565b60405180910390fd5b610e6c848484846117aa565b50505050565b6060610e7d82611806565b9050919050565b6000600560008473ffffffffffffffffffffffffffffffffffffffff1673ffffffffffffffffffffffffffffffffffffffff16815260200190815260200160002060008373ffffffffffffffffffffffffffffffffffffffff1673ffffffffffffffffffffffffffffffffffffffff16815260200190815260200160002060009054906101000a900460ff16905092915050565b610f20611153565b73ffffffffffffffffffffffffffffffffffffffff16610f3e610cb4565b73ffffffffffffffffffffffffffffffffffffffff1614610f94576040517f08c379a0000000000000000000000000000000000000000000000000000000008152600401610f8b90613152565b60405180910390fd5b600073ffffffffffffffffffffffffffffffffffffffff168173ffffffffffffffffffffffffffffffffffffffff161415611004576040517f08c379a0000000000000000000000000000000000000000000000000000000008152600401610ffb90612fb2565b60405180910390fd5b61100d81611559565b50565b600a341015611054576040517f08c379a000000000000000000000000000000000000000000000000000000000815260040161104b906131f2565b60405180910390fd5b61105e8383611958565b6110688282611b32565b505050565b60007f780e9d63000000000000000000000000000000000000000000000000000000007bffffffffffffffffffffffffffffffffffffffffffffffffffffffff1916827bffffffffffffffffffffffffffffffffffffffffffffffffffffffff191614806110e057506110df82611ba6565b5b9050919050565b60008073ffffffffffffffffffffffffffffffffffffffff166002600084815260200190815260200160002060009054906101000a900473ffffffffffffffffffffffffffffffffffffffff1673ffffffffffffffffffffffffffffffffffffffff1614159050919050565b600033905090565b816004600083815260200190815260200160002060006101000a81548173ffffffffffffffffffffffffffffffffffffffff021916908373ffffffffffffffffffffffffffffffffffffffff160217905550808273ffffffffffffffffffffffffffffffffffffffff166111ce83610ac2565b73ffffffffffffffffffffffffffffffffffffffff167f8c5be1e5ebec7d5bd14f71427d1e84f3dd0314c0f7b2291e5b200ac8c7c3b92560405160405180910390a45050565b600061121f826110e7565b61125e576040517f08c379a000000000000000000000000000000000000000000000000000000000815260040161125590613052565b60405180910390fd5b600061126983610ac2565b90508073ffffffffffffffffffffffffffffffffffffffff168473ffffffffffffffffffffffffffffffffffffffff1614806112ab57506112aa8185610e84565b5b806112e957508373ffffffffffffffffffffffffffffffffffffffff166112d1846105db565b73ffffffffffffffffffffffffffffffffffffffff16145b91505092915050565b8273ffffffffffffffffffffffffffffffffffffffff1661131282610ac2565b73ffffffffffffffffffffffffffffffffffffffff1614611368576040517f08c379a000000000000000000000000000000000000000000000000000000000815260040161135f90612fd2565b60405180910390fd5b600073ffffffffffffffffffffffffffffffffffffffff168273ffffffffffffffffffffffffffffffffffffffff1614156113d8576040517f08c379a00000000000000000000000000000000000000000000000000000000081526004016113cf90613012565b60405180910390fd5b6113e3838383611c88565b6113ee60008261115b565b6001600360008573ffffffffffffffffffffffffffffffffffffffff1673ffffffffffffffffffffffffffffffffffffffff168152602001908152602001600020600082825461143e91906133c9565b925050819055506001600360008473ffffffffffffffffffffffffffffffffffffffff1673ffffffffffffffffffffffffffffffffffffffff16815260200190815260200160002060008282546114959190613342565b92505081905550816002600083815260200190815260200160002060006101000a81548173ffffffffffffffffffffffffffffffffffffffff021916908373ffffffffffffffffffffffffffffffffffffffff160217905550808273ffffffffffffffffffffffffffffffffffffffff168473ffffffffffffffffffffffffffffffffffffffff167fddf252ad1be2c89b69c2b068fc378daa952ba7f163c4a11628f55a4df523b3ef60405160405180910390a4611554838383611c98565b505050565b6000600b60009054906101000a900473ffffffffffffffffffffffffffffffffffffffff16905081600b60006101000a81548173ffffffffffffffffffffffffffffffffffffffff021916908373ffffffffffffffffffffffffffffffffffffffff1602179055508173ffffffffffffffffffffffffffffffffffffffff168173ffffffffffffffffffffffffffffffffffffffff167f8be0079c531659141344cd1fd0a4f28419497f9722a3daafe3b4186f6b6457e060405160405180910390a35050565b611639828260405180602001604052806000815250611c9d565b5050565b8173ffffffffffffffffffffffffffffffffffffffff168373ffffffffffffffffffffffffffffffffffffffff1614156116ac576040517f08c379a00000000000000000000000000000000000000000000000000000000081526004016116a390613032565b60405180910390fd5b80600560008573ffffffffffffffffffffffffffffffffffffffff1673ffffffffffffffffffffffffffffffffffffffff16815260200190815260200160002060008473ffffffffffffffffffffffffffffffffffffffff1673ffffffffffffffffffffffffffffffffffffffff16815260200190815260200160002060006101000a81548160ff0219169083151502179055508173ffffffffffffffffffffffffffffffffffffffff168373ffffffffffffffffffffffffffffffffffffffff167f17307eab39ab6107e8899845ad3d59bd9653f200f220920489ca2b5937696c318360405161179d9190612f35565b60405180910390a3505050565b6117b58484846112f2565b6117c184848484611cf8565b611800576040517f08c379a00000000000000000000000000000000000000000000000000000000081526004016117f790612f92565b60405180910390fd5b50505050565b6060611811826110e7565b611850576040517f08c379a000000000000000000000000000000000000000000000000000000000815260040161184790613112565b60405180910390fd5b6000600660008481526020019081526020016000208054611870906134b3565b80601f016020809104026020016040519081016040528092919081815260200182805461189c906134b3565b80156118e95780601f106118be576101008083540402835291602001916118e9565b820191906000526020600020905b8154815290600101906020018083116118cc57829003601f168201915b5050505050905060006118fa611e8f565b9050600081511415611910578192505050611953565b60008251111561194557808260405160200161192d929190612e95565b60405160208183030381529060405292505050611953565b61194e84611ea6565b925050505b919050565b600073ffffffffffffffffffffffffffffffffffffffff168273ffffffffffffffffffffffffffffffffffffffff1614156119c8576040517f08c379a00000000000000000000000000000000000000000000000000000000081526004016119bf906130f2565b60405180910390fd5b6119d1816110e7565b15611a11576040517f08c379a0000000000000000000000000000000000000000000000000000000008152600401611a0890612ff2565b60405180910390fd5b611a1d60008383611c88565b6001600360008473ffffffffffffffffffffffffffffffffffffffff1673ffffffffffffffffffffffffffffffffffffffff1681526020019081526020016000206000828254611a6d9190613342565b92505081905550816002600083815260200190815260200160002060006101000a81548173ffffffffffffffffffffffffffffffffffffffff021916908373ffffffffffffffffffffffffffffffffffffffff160217905550808273ffffffffffffffffffffffffffffffffffffffff16600073ffffffffffffffffffffffffffffffffffffffff167fddf252ad1be2c89b69c2b068fc378daa952ba7f163c4a11628f55a4df523b3ef60405160405180910390a4611b2e60008383611c98565b5050565b611b3b826110e7565b611b7a576040517f08c379a0000000000000000000000000000000000000000000000000000000008152600401611b71906130d2565b60405180910390fd5b80600660008481526020019081526020016000209080519060200190611ba1929190612618565b505050565b60007f80ac58cd000000000000000000000000000000000000000000000000000000007bffffffffffffffffffffffffffffffffffffffffffffffffffffffff1916827bffffffffffffffffffffffffffffffffffffffffffffffffffffffff19161480611c7157507f5b5e139f000000000000000000000000000000000000000000000000000000007bffffffffffffffffffffffffffffffffffffffffffffffffffffffff1916827bffffffffffffffffffffffffffffffffffffffffffffffffffffffff1916145b80611c815750611c8082611f4d565b5b9050919050565b611c93838383611fb7565b505050565b505050565b611ca78383611958565b611cb46000848484611cf8565b611cf3576040517f08c379a0000000000000000000000000000000000000000000000000000000008152600401611cea90612f92565b60405180910390fd5b505050565b6000611d198473ffffffffffffffffffffffffffffffffffffffff166120cb565b15611e82578373ffffffffffffffffffffffffffffffffffffffff1663150b7a02611d42611153565b8786866040518563ffffffff1660e01b8152600401611d649493929190612ee9565b602060405180830381600087803b158015611d7e57600080fd5b505af1925050508015611daf57506040513d601f19601f82011682018060405250810190611dac9190612a2b565b60015b611e32573d8060008114611ddf576040519150601f19603f3d011682016040523d82523d6000602084013e611de4565b606091505b50600081511415611e2a576040517f08c379a0000000000000000000000000000000000000000000000000000000008152600401611e2190612f92565b60405180910390fd5b805181602001fd5b63150b7a0260e01b7bffffffffffffffffffffffffffffffffffffffffffffffffffffffff1916817bffffffffffffffffffffffffffffffffffffffffffffffffffffffff191614915050611e87565b600190505b949350505050565b606060405180602001604052806000815250905090565b6060611eb1826110e7565b611ef0576040517f08c379a0000000000000000000000000000000000000000000000000000000008152600401611ee790613172565b60405180910390fd5b6000611efa611e8f565b90506000815111611f1a5760405180602001604052806000815250611f45565b80611f24846120ee565b604051602001611f35929190612e95565b6040516020818303038152906040525b915050919050565b60007f01ffc9a7000000000000000000000000000000000000000000000000000000007bffffffffffffffffffffffffffffffffffffffffffffffffffffffff1916827bffffffffffffffffffffffffffffffffffffffffffffffffffffffff1916149050919050565b611fc283838361229b565b600073ffffffffffffffffffffffffffffffffffffffff168373ffffffffffffffffffffffffffffffffffffffff16141561200557612000816122a0565b612044565b8173ffffffffffffffffffffffffffffffffffffffff168373ffffffffffffffffffffffffffffffffffffffff16146120435761204283826122e9565b5b5b600073ffffffffffffffffffffffffffffffffffffffff168273ffffffffffffffffffffffffffffffffffffffff1614156120875761208281612456565b6120c6565b8273ffffffffffffffffffffffffffffffffffffffff168273ffffffffffffffffffffffffffffffffffffffff16146120c5576120c48282612599565b5b5b505050565b6000808273ffffffffffffffffffffffffffffffffffffffff163b119050919050565b60606000821415612136576040518060400160405280600181526020017f30000000000000000000000000000000000000000000000000000000000000008152509050612296565b600082905060005b6000821461216857808061215190613516565b915050600a826121619190613398565b915061213e565b60008167ffffffffffffffff8111156121aa577f4e487b7100000000000000000000000000000000000000000000000000000000600052604160045260246000fd5b6040519080825280601f01601f1916602001820160405280156121dc5781602001600182028036833780820191505090505b5090505b6000851461228f576001826121f591906133c9565b9150600a85612204919061355f565b60306122109190613342565b60f81b81838151811061224c577f4e487b7100000000000000000000000000000000000000000000000000000000600052603260045260246000fd5b60200101907effffffffffffffffffffffffffffffffffffffffffffffffffffffffffffff1916908160001a905350600a856122889190613398565b94506121e0565b8093505050505b919050565b505050565b600980549050600a600083815260200190815260200160002081905550600981908060018154018082558091505060019003906000526020600020016000909190919091505550565b600060016122f684610b74565b61230091906133c9565b90506000600860008481526020019081526020016000205490508181146123e5576000600760008673ffffffffffffffffffffffffffffffffffffffff1673ffffffffffffffffffffffffffffffffffffffff168152602001908152602001600020600084815260200190815260200160002054905080600760008773ffffffffffffffffffffffffffffffffffffffff1673ffffffffffffffffffffffffffffffffffffffff168152602001908152602001600020600084815260200190815260200160002081905550816008600083815260200190815260200160002081905550505b6008600084815260200190815260200160002060009055600760008573ffffffffffffffffffffffffffffffffffffffff1673ffffffffffffffffffffffffffffffffffffffff16815260200190815260200160002060008381526020019081526020016000206000905550505050565b6000600160098054905061246a91906133c9565b90506000600a60008481526020019081526020016000205490506000600983815481106124c0577f4e487b7100000000000000000000000000000000000000000000000000000000600052603260045260246000fd5b906000526020600020015490508060098381548110612508577f4e487b7100000000000000000000000000000000000000000000000000000000600052603260045260246000fd5b906000526020600020018190555081600a600083815260200190815260200160002081905550600a600085815260200190815260200160002060009055600980548061257d577f4e487b7100000000000000000000000000000000000000000000000000000000600052603160045260246000fd5b6001900381819060005260206000200160009055905550505050565b60006125a483610b74565b905081600760008573ffffffffffffffffffffffffffffffffffffffff1673ffffffffffffffffffffffffffffffffffffffff168152602001908152602001600020600083815260200190815260200160002081905550806008600084815260200190815260200160002081905550505050565b828054612624906134b3565b90600052602060002090601f016020900481019282612646576000855561268d565b82601f1061265f57805160ff191683800117855561268d565b8280016001018555821561268d579182015b8281111561268c578251825591602001919060010190612671565b5b50905061269a919061269e565b5090565b5b808211156126b757600081600090555060010161269f565b5090565b60006126ce6126c984613292565b61326d565b9050828152602081018484840111156126e657600080fd5b6126f1848285613471565b509392505050565b600061270c612707846132c3565b61326d565b90508281526020810184848401111561272457600080fd5b61272f848285613471565b509392505050565b60008135905061274681613c95565b92915050565b60008135905061275b81613cac565b92915050565b60008135905061277081613cc3565b92915050565b60008151905061278581613cc3565b92915050565b600082601f83011261279c57600080fd5b81356127ac8482602086016126bb565b91505092915050565b600082601f8301126127c657600080fd5b81356127d68482602086016126f9565b91505092915050565b6000813590506127ee81613cda565b92915050565b60006020828403121561280657600080fd5b600061281484828501612737565b91505092915050565b6000806040838503121561283057600080fd5b600061283e85828601612737565b925050602061284f85828601612737565b9150509250929050565b60008060006060848603121561286e57600080fd5b600061287c86828701612737565b935050602061288d86828701612737565b925050604061289e868287016127df565b9150509250925092565b600080600080608085870312156128be57600080fd5b60006128cc87828801612737565b94505060206128dd87828801612737565b93505060406128ee878288016127df565b925050606085013567ffffffffffffffff81111561290b57600080fd5b6129178782880161278b565b91505092959194509250565b6000806040838503121561293657600080fd5b600061294485828601612737565b92505060206129558582860161274c565b9150509250929050565b6000806040838503121561297257600080fd5b600061298085828601612737565b9250506020612991858286016127df565b9150509250929050565b6000806000606084860312156129b057600080fd5b60006129be86828701612737565b93505060206129cf868287016127df565b925050604084013567ffffffffffffffff8111156129ec57600080fd5b6129f8868287016127b5565b9150509250925092565b600060208284031215612a1457600080fd5b6000612a2284828501612761565b91505092915050565b600060208284031215612a3d57600080fd5b6000612a4b84828501612776565b91505092915050565b600060208284031215612a6657600080fd5b6000612a74848285016127df565b91505092915050565b612a86816133fd565b82525050565b612a958161340f565b82525050565b6000612aa6826132f4565b612ab0818561330a565b9350612ac0818560208601613480565b612ac98161364c565b840191505092915050565b6000612adf826132ff565b612ae98185613326565b9350612af9818560208601613480565b612b028161364c565b840191505092915050565b6000612b18826132ff565b612b228185613337565b9350612b32818560208601613480565b80840191505092915050565b6000612b4b602b83613326565b9150612b568261365d565b604082019050919050565b6000612b6e603283613326565b9150612b79826136ac565b604082019050919050565b6000612b91602683613326565b9150612b9c826136fb565b604082019050919050565b6000612bb4602583613326565b9150612bbf8261374a565b604082019050919050565b6000612bd7601c83613326565b9150612be282613799565b602082019050919050565b6000612bfa602483613326565b9150612c05826137c2565b604082019050919050565b6000612c1d601983613326565b9150612c2882613811565b602082019050919050565b6000612c40602c83613326565b9150612c4b8261383a565b604082019050919050565b6000612c63603883613326565b9150612c6e82613889565b604082019050919050565b6000612c86602a83613326565b9150612c91826138d8565b604082019050919050565b6000612ca9602983613326565b9150612cb482613927565b604082019050919050565b6000612ccc602e83613326565b9150612cd782613976565b604082019050919050565b6000612cef602083613326565b9150612cfa826139c5565b602082019050919050565b6000612d12603183613326565b9150612d1d826139ee565b604082019050919050565b6000612d35602c83613326565b9150612d4082613a3d565b604082019050919050565b6000612d58602083613326565b9150612d6382613a8c565b602082019050919050565b6000612d7b602f83613326565b9150612d8682613ab5565b604082019050919050565b6000612d9e602183613326565b9150612da982613b04565b604082019050919050565b6000612dc160008361331b565b9150612dcc82613b53565b600082019050919050565b6000612de4603183613326565b9150612def82613b56565b604082019050919050565b6000612e07602c83613326565b9150612e1282613ba5565b604082019050919050565b6000612e2a602183613326565b9150612e3582613bf4565b604082019050919050565b6000612e4d601f83613326565b9150612e5882613c43565b602082019050919050565b6000612e70601183613326565b9150612e7b82613c6c565b602082019050919050565b612e8f81613467565b82525050565b6000612ea18285612b0d565b9150612ead8284612b0d565b91508190509392505050565b6000612ec482612db4565b9150819050919050565b6000602082019050612ee36000830184612a7d565b92915050565b6000608082019050612efe6000830187612a7d565b612f0b6020830186612a7d565b612f186040830185612e86565b8181036060830152612f2a8184612a9b565b905095945050505050565b6000602082019050612f4a6000830184612a8c565b92915050565b60006020820190508181036000830152612f6a8184612ad4565b905092915050565b60006020820190508181036000830152612f8b81612b3e565b9050919050565b60006020820190508181036000830152612fab81612b61565b9050919050565b60006020820190508181036000830152612fcb81612b84565b9050919050565b60006020820190508181036000830152612feb81612ba7565b9050919050565b6000602082019050818103600083015261300b81612bca565b9050919050565b6000602082019050818103600083015261302b81612bed565b9050919050565b6000602082019050818103600083015261304b81612c10565b9050919050565b6000602082019050818103600083015261306b81612c33565b9050919050565b6000602082019050818103600083015261308b81612c56565b9050919050565b600060208201905081810360008301526130ab81612c79565b9050919050565b600060208201905081810360008301526130cb81612c9c565b9050919050565b600060208201905081810360008301526130eb81612cbf565b9050919050565b6000602082019050818103600083015261310b81612ce2565b9050919050565b6000602082019050818103600083015261312b81612d05565b9050919050565b6000602082019050818103600083015261314b81612d28565b9050919050565b6000602082019050818103600083015261316b81612d4b565b9050919050565b6000602082019050818103600083015261318b81612d6e565b9050919050565b600060208201905081810360008301526131ab81612d91565b9050919050565b600060208201905081810360008301526131cb81612dd7565b9050919050565b600060208201905081810360008301526131eb81612dfa565b9050919050565b6000602082019050818103600083015261320b81612e1d565b9050919050565b6000602082019050818103600083015261322b81612e40565b9050919050565b6000602082019050818103600083015261324b81612e63565b9050919050565b60006020820190506132676000830184612e86565b92915050565b6000613277613288565b905061328382826134e5565b919050565b6000604051905090565b600067ffffffffffffffff8211156132ad576132ac61361d565b5b6132b68261364c565b9050602081019050919050565b600067ffffffffffffffff8211156132de576132dd61361d565b5b6132e78261364c565b9050602081019050919050565b600081519050919050565b600081519050919050565b600082825260208201905092915050565b600081905092915050565b600082825260208201905092915050565b600081905092915050565b600061334d82613467565b915061335883613467565b9250827fffffffffffffffffffffffffffffffffffffffffffffffffffffffffffffffff0382111561338d5761338c613590565b5b828201905092915050565b60006133a382613467565b91506133ae83613467565b9250826133be576133bd6135bf565b5b828204905092915050565b60006133d482613467565b91506133df83613467565b9250828210156133f2576133f1613590565b5b828203905092915050565b600061340882613447565b9050919050565b60008115159050919050565b60007fffffffff0000000000000000000000000000000000000000000000000000000082169050919050565b600073ffffffffffffffffffffffffffffffffffffffff82169050919050565b6000819050919050565b82818337600083830152505050565b60005b8381101561349e578082015181840152602081019050613483565b838111156134ad576000848401525b50505050565b600060028204905060018216806134cb57607f821691505b602082108114156134df576134de6135ee565b5b50919050565b6134ee8261364c565b810181811067ffffffffffffffff8211171561350d5761350c61361d565b5b80604052505050565b600061352182613467565b91507fffffffffffffffffffffffffffffffffffffffffffffffffffffffffffffffff82141561355457613553613590565b5b600182019050919050565b600061356a82613467565b915061357583613467565b925082613585576135846135bf565b5b828206905092915050565b7f4e487b7100000000000000000000000000000000000000000000000000000000600052601160045260246000fd5b7f4e487b7100000000000000000000000000000000000000000000000000000000600052601260045260246000fd5b7f4e487b7100000000000000000000000000000000000000000000000000000000600052602260045260246000fd5b7f4e487b7100000000000000000000000000000000000000000000000000000000600052604160045260246000fd5b6000601f19601f8301169050919050565b7f455243373231456e756d657261626c653a206f776e657220696e646578206f7560008201527f74206f6620626f756e6473000000000000000000000000000000000000000000602082015250565b7f4552433732313a207472616e7366657220746f206e6f6e20455243373231526560008201527f63656976657220696d706c656d656e7465720000000000000000000000000000602082015250565b7f4f776e61626c653a206e6577206f776e657220697320746865207a65726f206160008201527f6464726573730000000000000000000000000000000000000000000000000000602082015250565b7f4552433732313a207472616e736665722066726f6d20696e636f72726563742060008201527f6f776e6572000000000000000000000000000000000000000000000000000000602082015250565b7f4552433732313a20746f6b656e20616c7265616479206d696e74656400000000600082015250565b7f4552433732313a207472616e7366657220746f20746865207a65726f2061646460008201527f7265737300000000000000000000000000000000000000000000000000000000602082015250565b7f4552433732313a20617070726f766520746f2063616c6c657200000000000000600082015250565b7f4552433732313a206f70657261746f7220717565727920666f72206e6f6e657860008201527f697374656e7420746f6b656e0000000000000000000000000000000000000000602082015250565b7f4552433732313a20617070726f76652063616c6c6572206973206e6f74206f7760008201527f6e6572206e6f7220617070726f76656420666f7220616c6c0000000000000000602082015250565b7f4552433732313a2062616c616e636520717565727920666f7220746865207a6560008201527f726f206164647265737300000000000000000000000000000000000000000000602082015250565b7f4552433732313a206f776e657220717565727920666f72206e6f6e657869737460008201527f656e7420746f6b656e0000000000000000000000000000000000000000000000602082015250565b7f45524337323155524953746f726167653a2055524920736574206f66206e6f6e60008201527f6578697374656e7420746f6b656e000000000000000000000000000000000000602082015250565b7f4552433732313a206d696e7420746f20746865207a65726f2061646472657373600082015250565b7f45524337323155524953746f726167653a2055524920717565727920666f722060008201527f6e6f6e6578697374656e7420746f6b656e000000000000000000000000000000602082015250565b7f4552433732313a20617070726f76656420717565727920666f72206e6f6e657860008201527f697374656e7420746f6b656e0000000000000000000000000000000000000000602082015250565b7f4f776e61626c653a2063616c6c6572206973206e6f7420746865206f776e6572600082015250565b7f4552433732314d657461646174613a2055524920717565727920666f72206e6f60008201527f6e6578697374656e7420746f6b656e0000000000000000000000000000000000602082015250565b7f4552433732313a20617070726f76616c20746f2063757272656e74206f776e6560008201527f7200000000000000000000000000000000000000000000000000000000000000602082015250565b50565b7f4552433732313a207472616e736665722063616c6c6572206973206e6f74206f60008201527f776e6572206e6f7220617070726f766564000000000000000000000000000000602082015250565b7f455243373231456e756d657261626c653a20676c6f62616c20696e646578206f60008201527f7574206f6620626f756e64730000000000000000000000000000000000000000602082015250565b7f4e6f7420656e6f756768204554482073656e743b20636865636b20707269636560008201527f2100000000000000000000000000000000000000000000000000000000000000602082015250565b7f5265656e7472616e637947756172643a207265656e7472616e742063616c6c00600082015250565b7f5769746864726177616c206661696c6564000000000000000000000000000000600082015250565b613c9e816133fd565b8114613ca957600080fd5b50565b613cb58161340f565b8114613cc057600080fd5b50565b613ccc8161341b565b8114613cd757600080fd5b50565b613ce381613467565b8114613cee57600080fd5b5056fea264697066735822122056b8e33c1d9d19d14d4369a0b3edc00d8d57a2acb85e6bafcf9296f2ca77d0fe64736f6c63430008040033",
  "linkReferences": {},
  "deployedLinkReferences": {}
}